:100000000C94671C0C94941C0C94941C0C94941CDD
:100010000C94941C0C94941C0C94941C0C94941CA0
:100020000C94941C0C94941C0C94941C0C94941C90
:100030000C94941C0C94941C0C94941C0C94941C80
:100040000C94941C0C94FA700C94941C0C94941CB6
:100050000C94941C0C94941C0C94D96F0C942BF15C
:100060000C94941C0C94236E0C944D6E0C94941C64
:100070000C94941C0C94941C0C94941C0C94941C40
:100080000C94941C0C94941C0C94941C0C94941C30
:100090000C94941C0C94941C0C94941C0C94941C20
:1000A0000C94941C0C94941C0C94941C0C94941C10
:1000B0000C94941C0C94941C0C94941C0C94941C00
:1000C0000C94941C0C94941C0C94941C0C94941CF0
:1000D0000C94941C0C94941C0C94941C0C94941CE0
:1000E0000C94941C6E67A865A865A865A865A865AA
:1000F000A865A865A865A865A865A865A865A86598
:10010000A865A865A865A865A865A865A865A86587
:10011000A865A865A865A8655167396721678865DE
:10012000A8658C670467A865A8659F667D66A86555
:100130006366A86546662C661666A865A865A86508
:10014000FE65E665CE65A865A865A865A865A8658D
:10015000A865A865A865A86551673967216788659E
:10016000A8658C670467A865A8659F667D66A86515
:100170006366A86546662C661666A865A865A865C8
:10018000FE65E665CE65084AD73B3BCE016E84BC72
:10019000BFFDC12F3D6C74319ABD56833DDA3D00E1
:1001A000C77F11BED9E4BB4C3E916BAAAABE00002A
:1001B00000803F05A84CCDB2D44EB93836A9020C08
:1001C00050B9918688083CA6AAAA2ABE00000080E1
:1001D0003F00011A191B21FF1D1C2723FF39383E40
:1001E00025FFFF0602091716180B0F3553657420FB
:1001F0004D6963726F7374657070696E67005761E3
:10020000746368646F6720666561747572652077D2
:100210006173206E6F7420636F6D70696C6564200C
:10022000696E746F20746869732076657273696F84
:100230006E210020746F200053657420766F6C75FA
:100240006D657472696320657874727573696F6E19
:1002500020666F7220657874727564657220004440
:10026000697361626C656420766F6C756D6574721C
:10027000696320657874727573696F6E20666F723A
:1002800020657874727564657220004D31313420B8
:100290000043616C656E74616E646F2043616D61D3
:1002A0000050696E2063616E206E6F74206265205D
:1002B000736574206279204D34322C206973206973
:1002C0006E2073656E7369746976652070696E73EC
:1002D000212000496C6C6567616C20532076616C4D
:1002E000756520666F72204D3432004175746F72EF
:1002F0006574726163743A00436F6C64206578744E
:10030000727573696F6E20646973616C6C6F776569
:100310006400436F6C6420657874727573696F6EE6
:1003200020616C6C6F776564004A616D2064656262
:10033000756767696E673A004A616D20636F6E7416
:10034000726F6C2064697361626C65643A00526517
:100350006C617469766520706F736974696F6E691A
:100360006E67004162736F6C75746520706F73699E
:1003700074696F6E696E67004649524D5741524528
:100380005F4E414D453A52657065746965725F30E4
:100390002E39322E33204649524D574152455F5532
:1003A000524C3A68747470733A2F2F676974687589
:1003B000622E636F6D2F72657065746965722F525E
:1003C000657065746965722D4669726D77617265D5
:1003D0002F2050524F544F434F4C5F564552534974
:1003E0004F4E3A312E30204D414348494E455F54DF
:1003F0005950453A4D656E64656C204558545255C8
:100400004445525F434F554E543A31205245504572
:10041000544945525F50524F544F434F4C3A33006A
:1004200044656275673A006F6B000D0A004E414EDD
:1004300000494E46004572726F723A00496E666F0F
:100440003A005761726E696E673A00526573656E65
:10045000643A004563686F3A006F6B200057726F13
:100460006E6720636865636B73756D004D697373A8
:10047000696E6720636865636B73756D00466F72A4
:100480006D6174206572726F7200446F6E652070CA
:1004900072696E74696E672066696C650020580029
:1004A000205900205A0020450020460020530020FB
:1004B0005000204900204A00205200534420726519
:1004C0006164206572726F72004572726F723A6574
:1004D00078706563746564206C696E6520002067C0
:1004E0006F742000736B69702000424C4B200073C6
:1004F0007461727400506F7765725570004578743E
:1005000065726E616C2052657365740042726F771C
:100510006E206F7574205265736574005761746343
:1005200068646F6720526573657400536F667477F3
:1005300061726520526573657400556E6B6E6F77DE
:100540006E20636F6D6D616E643A00467265652062
:1005500052414D3A00583A0020583A0020593A008A
:10056000205A3A0020453A00543A0020423A0020EE
:10057000403A002054002040002042403A002052DF
:100580004157003A002F00202F0053706565644DDD
:10059000756C7469706C793A00466C6F774D756C48
:1005A0007469706C793A0046616E73706565643A7F
:1005B000005072696E7465642066696C616D656E69
:1005C000743A005072696E74696E672074696D6563
:1005D0003A006D20002064617973200020686F75F7
:1005E00072732000206D696E00496E76616C6964DB
:1005F00020617263002C002000593A005A3A0045ED
:10060000303A0045313A004D53312C4D5332205091
:10061000696E7300536574206F75747075743A2039
:100620000047657420496E7075743A200020746F1D
:10063000200020697320004820004C2000785F6D66
:10064000696E3A00785F6D61783A00795F6D696E26
:100650003A00795F6D61783A007A5F6D696E3A00B1
:100660007A5F6D61783A007A325F6D696E6D61789C
:100670003A004A65726B3A00205A4A65726B3A003A
:10068000206C696E6561722073746570733A002026
:100690007175616472617469632073746570733A13
:1006A000002C2073706565643D00454550524F4DE8
:1006B0002075706461746564006C696E6561722098
:1006C0004C3A0020717561647261746963204B3A21
:1006D000004578747275646572204A616D004669E0
:1006E0006C616D656E7420736C697070696E670003
:1006F0002F2F20616374696F6E3A706175736500A6
:100700002F2F20616374696F6E3A726573756D6522
:100710000054617267657445787472005461726741
:1007200065744265643A00504944204175746F74A1
:10073000756E652073746172740020626961733A2A
:10074000200020643A2000206D696E3A2000206D60
:1007500061783A2000204B753A20002054753A20E9
:100760000020436C61737369632050494400204B3F
:10077000703A2000204B693A2000204B643A200058
:10078000504944204175746F74756E6520666169C7
:100790006C6564212054656D706572617475726555
:1007A00020746F206869676800504944204175745F
:1007B0006F74756E65206661696C6564212074696B
:1007C0006D656F757400504944204175746F747580
:1007D0006E652066696E6973686564202120506CBF
:1007E00061636520746865204B702C204B69206123
:1007F0006E64204B6420636F6E7374616E7473203B
:10080000696E2074686520436F6E666967757261F2
:1008100074696F6E2E68206F7220454550524F4D9F
:10082000004D54454D503A0068656174656420621E
:10083000656400657874727564657220003A20748E
:10084000656D702073656E736F7220646566656395
:1008500074003A20776F726B696E67005072696E30
:100860007465722073657420696E746F2064727988
:100870002072756E206D6F646520756E74696C20D2
:100880007265737461727421004175746F6C657662
:10089000656C206D6174726978207265736574008F
:1008A0004175746F6C6576656C696E6720656E6105
:1008B000626C6564004175746F6C6576656C696E19
:1008C000672064697361626C6564005472616E7361
:1008D000666F726D6174696F6E206D617472697894
:1008E0003A005A2D70726F6265206661696C6564AA
:1008F000005A2D70726F6265206D61783A005072F7
:10090000696E746572206865696768743A0077611A
:10091000697400436F6E66696775726174696F6EA2
:100920002073746F72656420746F20454550524F78
:100930004D2E00436F6E66696775726174696F6EE4
:10094000206C6F616465642066726F6D2045455050
:10095000524F4D2E00436F6E666967757261746900
:100960006F6E20726573657420746F2064656661B4
:10097000756C74732E0050726F746F636F6C207699
:10098000657273696F6E206368616E6765642C20A1
:10099000757067726164696E67004550523A302025
:1009A000004550523A3120004550523A322000451D
:1009B00050523A332000426175647261746500469A
:1009C000696C616D656E74207072696E7465642007
:1009D0005B6D5D005072696E74657220616374694D
:1009E0007665205B735D004D61782E20696E6163D2
:1009F000746976652074696D65205B6D732C303D7C
:100A00006F66665D0053746F7020737465707065F7
:100A10007220616674657220696E616374697669BB
:100A20007479205B6D732C303D6F66665D005820D5
:100A30006D696E20706F73205B6D6D5D0059206D68
:100A4000696E20706F73205B6D6D5D005A206D695B
:100A50006E20706F73205B6D6D5D0058206D617846
:100A6000206C656E677468205B6D6D5D0059206D4C
:100A70006178206C656E677468205B6D6D5D005AEF
:100A8000206D6178206C656E677468205B6D6D5DAC
:100A90000058206261636B6C617368205B6D6D5DF3
:100AA0000059206261636B6C617368205B6D6D5DE2
:100AB000005A206261636B6C617368205B6D6D5DD1
:100AC000004D61782E206A65726B205B6D6D2F730F
:100AD0005D004D61782E205A2D6A65726B205B6D2A
:100AE0006D2F735D00582D61786973207374657084
:100AF0007320706572206D6D00592D6178697320C7
:100B0000737465707320706572206D6D005A2D616D
:100B100078697320737465707320706572206D6DD1
:100B200000582D61786973206D61782E20666565A7
:100B30006472617465205B6D6D2F735D00592D616A
:100B4000786973206D61782E2066656564726174C2
:100B500065205B6D6D2F735D005A2D617869732080
:100B60006D61782E206665656472617465205B6DC9
:100B70006D2F735D00582D6178697320686F6D6902
:100B80006E67206665656472617465205B6D6D2FAC
:100B9000735D00592D6178697320686F6D696E67A8
:100BA000206665656472617465205B6D6D2F735D91
:100BB000005A2D6178697320686F6D696E672066D1
:100BC00065656472617465205B6D6D2F735D00589F
:100BD0002D6178697320616363656C657261746906
:100BE0006F6E205B6D6D2F735E325D00592D6178E5
:100BF000697320616363656C65726174696F6E20EF
:100C00005B6D6D2F735E325D005A2D6178697320C4
:100C1000616363656C65726174696F6E205B6D6D95
:100C20002F735E325D00582D617869732074726194
:100C300076656C20616363656C65726174696F6E63
:100C4000205B6D6D2F735E325D00592D6178697385
:100C50002074726176656C20616363656C65726196
:100C600074696F6E205B6D6D2F735E325D005A2D5F
:100C7000617869732074726176656C206163636565
:100C80006C65726174696F6E205B6D6D2F735E327F
:100C90005D004F5053206F7065726174696F6E20F4
:100CA0006D6F6465205B303D4F66662C313D436C53
:100CB00061737369632C323D466173745D004F50FC
:100CC00053206D6F766520616674657220782520EB
:100CD00072657472616374205B255D004F50532010
:100CE0006D696E2E2064697374616E636520666F32
:100CF000722066696C2E2072657472616374696F0C
:100D00006E205B6D6D5D004F505320726574726193
:100D10006374696F6E206C656E677468205B6D6DBF
:100D20005D004F50532072657472616374696F6E19
:100D3000206261636B6C617368205B6D6D5D004266
:100D400065642048656174204D616E61676572203D
:100D50005B302D335D00426564205049442064724D
:100D6000697665206D6178004265642050494420B1
:100D70006472697665206D696E0042656420504931
:100D80004420502D6761696E0042656420504944DB
:100D900020492D6761696E004265642050494420F6
:100DA000442D6761696E0042656420504944206D9E
:100DB00061782076616C7565205B302D3235355D4C
:100DC00000737465707320706572206D6D006D61C5
:100DD000782E206665656472617465205B6D6D2F89
:100DE000735D00737461727420666565647261740A
:100DF00065205B6D6D2F735D00616363656C65726B
:100E00006174696F6E205B6D6D2F735E325D00687B
:100E1000656174206D616E61676572205B302D3392
:100E20005D00504944206472697665206D617800E8
:100E3000504944206472697665206D696E0050499E
:100E40004420502D6761696E2F646561642D74695B
:100E50006D650048656174657220646561642D7418
:100E6000696D65006E6120666F7220646561642043
:100E700074696D65206374726C0050494420492D7B
:100E80006761696E0050494420442D6761696E00B6
:100E9000504944206D61782076616C7565205B3027
:100EA0002D3235355D00582D6F6666736574205B95
:100EB00073746570735D00592D6F66667365742079
:100EC0005B73746570735D005A2D6F66667365742D
:100ED000205B73746570735D0074656D702E207394
:100EE000746162696C697A652074696D65205B73F1
:100EF0005D0074656D702E20666F7220726574726D
:100F0000616374696F6E207768656E2068656174CF
:100F1000696E67205B435D0064697374616E63652D
:100F200020746F2072657472616374207768656ED7
:100F30002068656174696E67205B6D6D5D00657822
:100F400074727564657220636F6F6C657220737064
:100F5000656564205B302D3235355D0061647661F6
:100F60006E6365204B205B303D6F66665D0061649B
:100F700076616E6365204C205B303D6F66665D0078
:100F8000534420726574697261646100534420693E
:100F90006E737465727461646100534420696E6994
:100FA00074206661696C006572726F722077726975
:100FB00074696E6720746F2066696C6500426567AE
:100FC000696E2066696C65206C69737400456E6497
:100FD0002066696C65206C6973740046696C6520D5
:100FE0006F70656E65643A002053697A653A004611
:100FF000696C652073656C65637465640066696C13
:10100000652E6F70656E206661696C65640053447F
:10101000207072696E74696E672062797465200051
:101020004E6F74205344207072696E74696E67004D
:101030006F70656E206661696C65642C2046696C12
:10104000653A200057726974696E6720746F206674
:10105000696C653A2000446F6E6520736176696E35
:10106000672066696C652E0046696C652064656C56
:10107000657465640044656C6574696F6E206661B3
:10108000696C6564004469726563746F727920638A
:10109000726561746564004372656174696F6E2086
:1010A0006661696C6564005344206572726F7243B7
:1010B0006F64653A00486561746572206465636FAA
:1010C00075706C6564004F6E65206865617465724B
:1010D000207365656D73206465636F75706C6564FE
:1010E0002066726F6D20746865726D6973746F72BB
:1010F000202D2064697361626C696E6720616C6C7D
:1011000020666F72207361666574792100456E6197
:10111000626C652072657472616374696F6E2063BE
:101120006F6E76657273696F6E205B302F315D0074
:1011300052657472616374696F6E206C656E67745A
:1011400068205B6D6D5D0052657472616374696FD8
:101150006E206C656E67746820657874727564655E
:101160007220737769746368205B6D6D5D005265F2
:101170007472616374696F6E207370656564205B5F
:101180006D6D2F735D0052657472616374696F6E6B
:10119000207A2D6C696674205B6D6D5D00457874F6
:1011A000726120657874727573696F6E206F6E203E
:1011B000756E646F2072657472616374205B6D6D0F
:1011C0005D00457874726120657874727573696F1B
:1011D0006E206F6E20756E646F207377697463681C
:1011E0002072657472616374205B6D6D5D00526581
:1011F0007472616374696F6E20756E646F207370B2
:1012000065656400436F6E6669673A00457874727D
:101210002E000B0F1C151C141F00002243141F1F4F
:10122000B31223137713E713371400000000B3142D
:101230003B1547169716131743616C656E74616E04
:10124000646F204578747275736F720020646567EF
:101250002E204300206D6561737572656420004522
:1012600072726F723A436F756C64206E6F7420688F
:101270006F6C642074656D70657261747572652041
:1012800000206D73002061667465722000457272E3
:101290006F723A54656D702E2072616973656420B7
:1012A000746F20736C6F772E2052697365203D2018
:1012B0000000000000A00F5C0060096900100979BF
:1012C00000C0088C007008A2002008BD00D007DE16
:1012D000008007050130073401E0066D019006B279
:1012E0000140060702F0056D02A005E80250057BEB
:1012F0000300052B04B004F8046004EB06C00335BA
:101300000920037F0B8002650DE001B00E40011D36
:101310000FF000480FC8006C0FA000ED0F60FFFE3B
:101320000F48FE0400801AD8009808AC01200780FE
:101330000250065403C80528045805FC040005D0D3
:1013400005B004A4066804780728044C08E80320C4
:1013500009B003F4097003C80A38039C0BF8027043
:101360000CB002440D6802180E0802EC0E8801C091
:101370000F8800F00F00000400001B540060096497
:101380000010097400C008840070089C002008B890
:1013900000D007D8008007000130072C01E0066864
:1013A000019006AC0140060002F0056802A005E0CD
:1013B000025005740300052404B004F0046004DC4A
:1013C000051004E406C00304087003300920037804
:1013D0000B8002600DE001A80E4001680FA000C064
:1013E0000F0000E80F60FF0400700DD8004804AC47
:1013F0000158038002D8025403800228043802FCFA
:10140000040002D005C801A4069801780770014CB9
:1014100008480120091801F409F000C80AC8009C16
:101420000BA000700C7000440D3800180E0000EC8A
:101430000EA8FFC00FE8FE040048164400600950E3
:101440000010095C00C0086C0070087C0020089443
:1014500000D007AC008007CC003007F400E0062481
:101460000190065C014006A801F0050002A0056C91
:10147000025005F40200059803B0045804600440CB
:101480000510044806C00370077003A8082003EC89
:1014900009D002240B8002400C3002380DE0010418
:1014A0000E9001A40E40015C0FA000A00F5000C8D8
:1014B0000F00000000401F450060094F0010095C4C
:1014C00000C0086B0070087D0020089200D007ACB7
:1014D000008007CC003007DE00E006230190065EA6
:1014E000014006A601F005FF01A0056D025005F3BD
:1014F0000200059603B0045A046004400510044835
:1015000006C0036E077003A8082003EB09D002236E
:101510000B8002410C3002390DE001040E9001A253
:101520000E4001170FF000690FA000A20F5000C677
:101530000F0000DD0FB0FFEB0F60FF0400681D4CD3
:1015400000500B94005809DC0050082401A8076CD7
:10155000012807B401C006FC017006440228068C6D
:1015600002F005D402B8051C03880564035805ACD5
:10157000033005F40310053C04E8048404C804CCDB
:1015800004A804140590045C057004A4055804EC38
:10159000053804340620047C060804C406F0030C55
:1015A00007D8035407C8039C07B003E40798032C2B
:1015B00008800374087003BC085803040948034CEE
:1015C00009300394091803DC090803240AF0026CAB
:1015D0000AE002B40AC802FC0AB002440BA0028C62
:1015E0000B8802D40B70021C0C5802640C4002AC35
:1015F0000C2802F40C10023C0DF001840DD801CC33
:101600000DB801140E98015C0E7001A40E4801EC97
:101610000E1801340FD8007C0F8800C40F0800FC9E
:101620000F000000000000000000000000000000AB
:1016300000000000000000000000000000000000AA
:101640000000000000000004000016D800C006AC36
:101650000178058002C004540348042804E803FC10
:10166000049803D0055003A40618037807D8024C49
:1016700008A80220097002F4093802C80A08029C6E
:101680000BD001700C9001440D5001180EF800ECC5
:101690000E8800C00F00000400401D900060091C6F
:1016A00001B007A801D00634023806C002C8054CB4
:1016B000036805D80318056404D804F00498047C72
:1016C00005600408063004940600042007D003AC2B
:1016D00007A80338088003C408580350093003DC06
:1016E000090803680AE002F40AB802800B88020CB9
:1016F0000C6002980C3002240DF801B00DC0013CC2
:101700000E8001C80E3001540FB800B40F2800E05D
:101710000F00000400081D900058091C01B007A824
:1017200001C80634023006C002C0054C036805D863
:101730000318056404D004F00498047C05600408D0
:10174000063004940600042007D003AC07A8033831
:10175000088003C408580350093003DC09080368F3
:101760000AD802F40AB002800B88020C0C600298BE
:101770000C3002240DF801B00DC0013C0E8001C8F0
:101780000E3001540FB800B40F2800E00F000053D2
:1017900044206572726F72206669786564005344F4
:1017A000206572726F7220646964206E6F7420729B
:1017B00065636F7665722100534420526561642031
:1017C0004572726F720042696E6172793A00436FBE
:1017D0006D6D616E644275666665720000000000A2
:1017E00000000000000000000000000024F403D905
:1017F00050C38EB1C2A23D96828B3582127AE372BB
:10180000816CCB66A861015DC758EB546151204ED5
:101810001E4B5648C14559431A41013F093D2F3BD4
:101820007139CD374036C93465331432D430A32FE3
:10183000802E6B2D632C672B752A8E29B028DC2710
:1018400010274B268F25D9242B248223E0224322E4
:10185000AC211A218D200420801F001F841E0C1E25
:10186000971D261DB81C4E1CE61B821B201BC11A8F
:10187000641A0A1AB2195D190A19B9186A181C18DB
:10188000D11788174017FA16B51673163116F115C9
:10189000B31576153A150015C7148F145814221471
:1018A000EE13BA13881356132513F612C7129912A2
:1018B0006C1240121512EB11C111981170114811E0
:1018C0002111FB10D610B1108D1069104610241094
:1018D0000210E10FC00FA00F800F610F420F230F06
:1018E000060FE80ECB0EAF0E930E770E5C0E410E78
:1018F000270E0D0EF30DDA0DC10DA80D900D780D0C
:10190000600D490D320D1B0D050DEF0CD90CC30CEC
:10191000AE0C990C850C700C5C0C480C350C210C31
:101920000E0CFB0BE80BD60BC40BB20BA00B8E0BF3
:101930007D0B6B0B5A0B4A0B390B290B180B080B41
:10194000F80AE90AD90ACA0ABB0AAC0A9D0A8E0A31
:10195000800A710A630A550A470A390A2C0A1E0AC4
:10196000110A040AF709EA09DD09D009C409B7090F
:10197000AB099F09920987097B096F096309580917
:101980004C09410936092B09200915090A090009E2
:10199000F508EB08E008D608CC08C208B808AE087D
:1019A000A4089A08900887087D0874086B086108E5
:1019B00058084F0846083D0834082C0823081A0820
:1019C000120809080108F807F007E807E007D80738
:1019D000D007C807C007B807B007A807A1070000CD
:1019E000420FA1071605D0030D038B022E02E8015A
:1019F000B2018601630145012C0117010401F400C5
:101A0000456E206573706572612E2E2E004D6178D3
:101A100054656D703A004469616D657465723A0091
:101A2000416363656C65726174696F6E3A004D6104
:101A30007853706565643A004A65726B3A004D618F
:101A40007842656454656D703A005072696E7465D1
:101A500072547970653A43617274657369616E009E
:101A60005A54726176656C416363656C3A005954EF
:101A7000726176656C416363656C3A0058547261BB
:101A800076656C416363656C3A005A5072696E7496
:101A9000416363656C3A00595072696E74416363C7
:101AA000656C3A00585072696E74416363656C3AB4
:101AB000005A53697A653A005953697A653A005871
:101AC00053697A653A005A4D61783A00594D617808
:101AD0003A00584D61783A005A4D696E3A00594DB6
:101AE000696E3A00584D696E3A00526574726163CE
:101AF00074696F6E556E646F53706565643A005219
:101B0000657472616374696F6E556E646F45787445
:101B100072614C6F6E674C656E6774683A0052650F
:101B20007472616374696F6E556E646F4578747218
:101B3000614C656E6774683A0052657472616374D3
:101B4000696F6E5A4C6966743A00526574726163CB
:101B500074696F6E53706565643A005265747261A2
:101B60006374696F6E4C6F6E674C656E6774683A2C
:101B70000052657472616374696F6E4C656E677450
:101B8000683A004A65726B5A3A004A65726B585956
:101B90003A005072696E746C696E65436163686582
:101BA0003A00454550524F4D3A004175746F6C658F
:101BB00076656C3A005A50726F62653A0043617301
:101BC000654C69676874733A00537570706F72740E
:101BD0004C6F63616C46696C616D656E74636861BE
:101BE0006E67653A00537570706F72744731304795
:101BF00031313A005A486F6D654469723A0059486C
:101C00006F6D654469723A0058486F6D654469723A
:101C10003A00536F667477617265506F77657253DF
:101C200077697463683A004C43443A0046616E3AFF
:101C3000005344436172643A0048656174656442CC
:101C400065643A004D6978696E67457874727564A9
:101C500065723A004E756D45787472756465723AB6
:101C600000496E7075744275666665723A0042612D
:101C70007564726174653A004E6F2063617365200C
:101C80006C696768747300686F6D6541786973206B
:101C9000005A20486F6D65005920486F6D650058E7
:101CA00020486F6D6500446573686162696C697492
:101CB00061206D6F746F72005374616E646279009D
:101CC000656E6473746F7073206869743A200041A4
:101CD000637475616C697A616E646F2E2E2E004D8F
:101CE00031313720496D70726573696F6E2064659C
:101CF00074656E6964610A204739300A20473932B9
:101D00002045300A20473120452D310A20473932FD
:101D10002045300A204D3134302053300A204D31D7
:101D200030342053300A204731205A3133300A20D2
:101D3000473238205830205930200A204D31303772
:101D40000A204D38340A20005344207072696E74A2
:101D50002073746F7070656420627920757365728A
:101D60002E0000005344206361726420696E736525
:101D70007274656400534420696E73746572746193
:101D80006461005344207265746972616461005338
:101D90004420636172642072656D6F766564000033
:101DA000002110422063308440A550C660E77008CF
:101DB0008129914AA16BB18CC1ADD1CEE1EFF13156
:101DC00012100273325222B5529442F772D662391F
:101DD0009318837BB35AA3BDD39CC3FFF3DEE362A6
:101DE00024433420040114E664C774A44485546A6F
:101DF000A54BB528850995EEE5CFF5ACC58DD55336
:101E000036722611163006D776F6669556B4465BBE
:101E1000B77AA719973887DFF7FEE79DD7BCC7C405
:101E200048E5588668A7784008611802282338CC0E
:101E3000C9EDD98EE9AFF9488969990AA92BB9F595
:101E40005AD44AB77A966A711A500A333A122AFD5E
:101E5000DBDCCBBFFB9EEB799B588B3BBB1AABA665
:101E60006C877CE44CC55C222C033C600C411CAEAE
:101E7000ED8FFDECCDCDDD2AAD0BBD688D499D9775
:101E80007EB66ED55EF44E133E322E511E700E9FFE
:101E9000FFBEEFDDDFFCCF1BBF3AAF599F788F88C5
:101EA00091A981CAB1EBA10CD12DC14EF16FE18096
:101EB00010A100C230E3200450254046706760B98D
:101EC000839893FBA3DAB33DC31CD37FE35EF3B1E6
:101ED000029012F322D2323542145277625672EADD
:101EE000B5CBA5A89589856EF54FE52CD50DC5E236
:101EF00034C324A01481046674476424540544DB6D
:101F0000A7FAB79987B8975FE77EF71DC73CD7D385
:101F100026F2369106B01657667676154634564C3C
:101F2000D96DC90EF92FE9C899E9898AB9ABA944D5
:101F300058654806782768C018E1088238A3287DCC
:101F4000CB5CDB3FEB1EFBF98BD89BBBAB9ABB7525
:101F50004A545A376A167AF10AD01AB32A923A2E9C
:101F6000FD0FED6CDD4DCDAABD8BADE89DC98D2675
:101F70007C076C645C454CA23C832CE01CC10C1FAC
:101F8000EF3EFF5DCF7CDF9BAFBABFD98FF89F17C5
:101F90006E367E554E745E932EB23ED10EF01E7C90
:101FA0003C3E5E2B3D3F2F5B5D3B2C2A225C004E6E
:101FB0006F206572726F7220666F756E642E0043BB
:101FC000616E2774206F70656E20726F6F7420646D
:101FD00069726563746F72792E00496E76616C69FF
:101FE0006420666F726D61742C207265666F726D0D
:101FF00061742053442E004E6F20636172642C2064
:1020000077726F6E6720636869702073656C6563B3
:10201000742070696E2C206F7220535049207072AA
:102020006F626C656D3F0043616E2774206163636E
:1020300065737320534420636172642E20446F20C3
:102040006E6F74207265666F726D61742E00000091
:10205000FF00000000010100000000FF00004163DC
:1020600063696F6E3A256C610005BA040400F224BE
:1020700005B6040400FA2405B90404000225058C01
:102080001304000A25058D1304001225058F13047F
:10209000001A250590130400222505931304002A35
:1020A000250592130400322503102702003A250368
:1020B000102702003E250100000100422502000019
:1020C0000600442503ED030400502503EE0304003D
:1020D000582503EF030400602503FA030400682574
:1020E00003FB030400702503FC03040078250200B1
:1020F000000800802502000006009025020000086C
:10210000009C250588130400AC2552657175657324
:102110007450617573653A00696D706F7274616EA9
:10212000743A2046696C616D656E74206368616EF7
:102130006765207265717569726564210053696E07
:10214000207461726A65746120534400456E667242
:102150006961720050726563616C656E74617220B2
:102160004142530050726563616C656E7461722008
:10217000504C410050726563616C656E74616E64B1
:102180006F20657874722E0050726563616C656EA5
:1021900074616E646F20657874722E00507265638E
:1021A000616C656E74616E646F2063616D61005077
:1021B000726563616C656E74616E646F2063616DDE
:1021C00061004D31303920543020533139300047CF
:1021D000393000473238205830205930205A3000EA
:1021E0004D313039205430205332343000473930AB
:1021F00000473238205830205930205A30004D31B5
:1022000030392054302053313930004739300047BD
:102210003238205830205930205A30004D31303972
:1022200020543020533234300047393000473238A0
:10223000205830205930205A30004739300047327A
:1022400038205830205930205A3000473930004764
:102250003238205830205930205A300055495F41DB
:102260004354494F4E5F484F4D455F5A20005549F2
:102270005F414354494F4E5F484F4D455F592000E1
:1022800055495F414354494F4E5F484F4D455F5854
:10229000200055495F414354494F4E5F484F4D45DB
:1022A000414C4C20004A616D20636F6E74726F6CFC
:1022B0002064697361626C65643A008025000040A7
:1022C000380000004B00008070000000960000C045
:1022D000DA000000E10000002C010008B20100005B
:1022E000C2010000F401000084030090D00300004C
:1022F000E803000008070020A1070000100E0040BE
:10230000420F0060E316000000000055495F4143A2
:1023100054494F4E5F45504F534954494F4E20004A
:1023200055495F414354494F4E5F5A504F534954AA
:10233000494F4E5F46415354200055495F41435435
:10234000494F4E5F59504F534954494F4E5F464194
:102350005354200055495F414354494F4E5F5850F4
:102360004F534954494F4E5F4641535420005549FD
:102370005F414354494F4E5F5A504F534954494F60
:102380004E200055495F414354494F4E5F59504FCD
:10239000534954494F4E200055495F414354494FDA
:1023A0004E5F58504F534954494F4E200002000091
:1023B0000F00B425058E130400D2250591130400E7
:1023C000DA2505B7040400E22505B8040400EA256F
:1023D00005B9040400F225FA25020A26000047394F
:1023E0003000473238205A300047323820583020E9
:1023F000593020004D313039205430207332343080
:1024000000473238205830205930004732382058A1
:102410003020593000112618261F26262653690021
:102420004E6F00030004004E2F410042616E674270
:10243000616E6700536C6F7742616E67004465613F
:10244000642054696D650050494400003A002064DE
:1024500061797320002064656320004552524F5219
:10246000004F6E004F6666000000003FCDCC4C3D33
:102470000AD7A33B6F12033A52657065746965729F
:1024800020302E39322E33005472696D616B6572C3
:1024900000434F534D4F53202D2056657273696F83
:1024A0006E20312E36005472696D616B6572204C5E
:1024B000697374612E0000401454040E15041C004E
:1024C0000000040A040000000000001F1F1F1F1F5F
:1024D0000000001F1111111F0000040A0A0A0E1F3C
:1024E0001F0E001C1F11111F0000110A0411040A05
:1024F00011112D2634263B264226492650265726E2
:102500005E2665266C2673267A26812688268F26E7
:1025100096269D26A426AB26B226B926C026C72617
:10252000CE26D526DC26E326EA26F126F826FF2647
:1025300006270D2714271B2722272927302737276F
:102540003E27452745274C2753275A2761276827C9
:102550006F2776277D2784278B2792279927A02707
:10256000A727AE27B527BC27C327CA27D127D82737
:10257000DF27E627ED27F427FB2702280928102864
:10258000452717281E2825282C2833283A28412893
:10259000452748284F2856285D28642845271728AE
:1025A0006B2872287928802887288E2895289C28CF
:1025B000A328AA284527B128B828BF28C628CD288F
:1025C000D428DB28E228E928F028F72853275A27BF
:1025D0006127FE2805290C2913291A2921292829D0
:1025E0002F2936293D2944294B2952295929602967
:1025F00067296E2975297C29832943616C656E746E
:10260000616E646F2043616D610002000008008A02
:102610002900000004009A290000000400A22900FB
:1026200000000400AA290000000400B229BA290011
:1026300000000000BE290000000000CA29000000C0
:102640000000CE290000000000D229000000000098
:10265000E6290000000000F82900000000000A2A16
:1026600000000000001E2A0000000000332A0000C5
:10267000000000482A00000000005D2A0000000061
:1026800000722A00000000007C2A00000000008C7C
:102690002A00000000008D2A0000000000972A0098
:1026A00000000000A42A0000000000B62A0000007C
:1026B0000000C32A0000000000D82A00000000002B
:1026C000E22A0000000000F22A0000000000F32AC5
:1026D0000000000000FD2A00000000000A2B00009E
:1026E0000000001C2B0000000000292B000000004F
:1026F000003E2B00000000004B2B00000000005D9E
:102700002B00000000006A2B00000000007F2B005F
:10271000000000008C2B00000000009E2B00000039
:102720000000AB2B0000000000C02B0000000000E8
:10273000C82B0000000000DD2B0000000000E52B8E
:102740000000000000F72B03E8030000FF2B03F557
:10275000030102112C03F6030204222C03F70304E5
:1027600000362C02482C02004F2C03F40301025EB9
:102770002C0000000000672C00000000007B2C00F3
:1027800000000000832C0000000000842C000000EA
:1027900000008D2C0000000000A12C0000000000B3
:1027A000A92C0000000000AA2C0000000000B32C9F
:1027B0000000000000C72C0000000000CF2C00002B
:1027C000000000D02C0000000000D92C0000000008
:1027D00000ED2C0000000000F52C0000000000F6C9
:1027E0002C0000000000FF2C0000000000132D0052
:1027F000000000001B2D00000000001C2D00000048
:102800000000252D0000000000392D000000000010
:10281000412D0000000000422D03FD0300104C2D4F
:10282000025D2D0000642D03B5040010722D03BF5E
:10283000040010852D02912D0000982D033804000E
:1028400010A02D0343040010B32D043D040000C567
:102850002D043E040000D72D033A040000E82D02A9
:10286000F92D0000002E0344040000112E03FE0386
:102870000010182E03FF0300101F2E030004001089
:10288000262E02D92000002E2E02E0200000362E37
:1028900002E72000003E2E0000000000522E000043
:1028A000000000662E0000000000792E00000000ED
:1028B000008E2E041F041A009F2E0448041A00AC38
:1028C0002E02EE20001ABB2E02F520001AC92E029D
:1028D000BD20001ADB2E02FC20001AE42E02EE2E90
:1028E000001AF52E02062F001A0D2F043E041A00BE
:1028F0001F2F043D041A00312F0388131000432FAB
:102900000000000000512F0000000000632F0000B5
:10291000000000762F00000000008B2F0000000058
:1029200000992F0000000000AB2F0000000000BE47
:102930002F0000000000D32F0000000000E72F0050
:1029400000000000F92F00000000000B3000000024
:1029500000001F30000000000033300000000000C5
:1029600045300000000000573000000000006B30D0
:1029700000000000007F30000000000091300000E7
:10298000000000A33000000000004527B730BE3033
:10299000C530CC30D330DA30E130E830EF30F630CB
:1029A000FD3004310B3112311931203127312E31F4
:1029B00035313C3143314A315131202020004D6FB7
:1029C0007669656E646F2E2E2E0020202000202058
:1029D0002000416A75737465206C612070657269AE
:1029E0006C6C61203100646562616A6F20646520EF
:1029F0006C612063616D61007573616E646F206C42
:102A00006120686F6A612064650063616C6962724D
:102A10006163696F6E202020203C4F4B3E004D6F5C
:102A2000766572206D616E75616C6D656E74652082
:102A3000656C006578747275736F722E2043616CDB
:102A400069627265206C6100616C747572612063EB
:102A50006F6E20656C20706170656C2E00202020E8
:102A60002020202020203C4F4B3E202020202020D2
:102A70002000457370657261722061007072656339
:102A8000616C656E746172204142530000052565DA
:102A9000632F254563020050726573696F6E617222
:102AA000206C610070616C616E63612079207265D9
:102AB000746972617200656C2066696C616D656E27
:102AC000746F002020202020202020203C4F4B3EEF
:102AD0002020202020202000457370657261722024
:102AE000610070726563616C656E74617220504C38
:102AF000410000052565632F25456302005072657E
:102B000073696F6E6172206C610070616C616E63DD
:102B1000612079207265746972617200656C20664B
:102B2000696C616D656E746F00202020202020206C
:102B300020203C4F4B3E202020202020200050729F
:102B40006573696F6E6172206C610070616C616E9B
:102B500063612079207265746972617200656C200E
:102B600066696C616D656E746F00202020202020E6
:102B70002020203C4F4B3E202020202020200050B1
:102B8000726573696F6E6172206C610070616C6157
:102B90006E63612079207265746972617200656C80
:102BA0002066696C616D656E746F002020202020A6
:102BB000202020203C4F4B3E2020202020202000A1
:102BC000436F6E6669672E00616C6D6163656E614F
:102BD000646120656E20454550524F4D00436F6E35
:102BE0006669672E006361726761646120646520B5
:102BF000454550524F4D00417472617320010049A8
:102C00006D7072696D6972206465736465205344E8
:102C10000050617573617220696D70726573696FC0
:102C20006E00436F6E74696E75617220696D7072AB
:102C30006573696F6E00444554454E455220696D79
:102C400070726573696F6E000200000300583142B4
:102C50006F72726172206172636869766F00583AB0
:102C6000257830206D6D0046696E20436172726573
:102C70007261204D696E3A257378004D61783A256E
:102C800073580000593A257831206D6D0046696E01
:102C90002043617272657261204D696E3A257379C5
:102CA000004D61783A25735900005A3A2578322050
:102CB0006D6D0046696E2043617272657261204DD0
:102CC000696E3A25737A004D61783A25735A00008F
:102CD000583A257830206D6D0046696E2043617248
:102CE00072657261204D696E3A257378004D617886
:102CF0003A2573580000593A257831206D6D004609
:102D0000696E2043617272657261204D696E3A2569
:102D10007379004D61783A25735900005A3A257845
:102D200032206D6D0046696E20436172726572617A
:102D3000204D696E3A25737A004D61783A25735AB1
:102D400000004972206120486F6D65004361726721
:102D500061722066696C616D656E746F00020000BF
:102D600005005E3143616C69627261722063616D5E
:102D7000610043616C69622E2063616D61206D6149
:102D80006E75616C0050726563616C656E74617222
:102D90000002000007006831456E667269617200CA
:102DA00044657361637469766172206D6F746F72CC
:102DB00065730054656D702E2043616D613A202566
:102DC000456202430054656D702E204578742E3A9A
:102DD00020254530024300456E66726961722065A8
:102DE00078747275736F7200457874727573696F59
:102DF0006E206D616E75616C0003F0030400763126
:102E00004578747275736F7220656E206365726F9A
:102E1000005820486F6D65005920486F6D65005A55
:102E200020486F6D65004D6F7665722058004D6FBC
:102E30007665722059004D6F766572205A00507287
:102E40006573696F6E65206C612070616C616E6383
:102E5000610052657469726520656C2066696C61F9
:102E60006D656E746F007920636F6C6F717565208E
:102E7000656C206E7565766F002020202020202054
:102E800020203C4F4B3E2020202020202000566553
:102E90006C6F63696461643A256F6D252525004672
:102EA0006C756A6F3A256F6625252500436F6E663F
:102EB00069672E205261706964610045787472758B
:102EC000736F722F43616D6100496D7072696D6936
:102ED0007220646573646520534400506F736963A6
:102EE000696F6E00446562756767696E670002000E
:102EF0000005007E31436F6E6669672E2041766162
:102F00006E7A616461000200000800883154656DCA
:102F1000702E204578742E3A202545300243005407
:102F2000656D702E2043616D613A20254562024334
:102F30000043616D626961722066696C616D656EE6
:102F4000746F0050726573696F6E6172206C6120DE
:102F50000070616C616E6361207920636F6C6F63D8
:102F6000617200656C206E7565766F2066696C61B4
:102F70006D656E746F002020202020202020203CD2
:102F80004F4B3E2020202020202000507265736986
:102F90006F6E6172206C61200070616C616E6361A4
:102FA000207920636F6C6F63617200656C206E75B1
:102FB00065766F2066696C616D656E746F002020A8
:102FC000202020202020203C4F4B3E20202020206D
:102FD000202000416A75737465206C6120706572F1
:102FE000696C6C61203200646562616A6F2064659F
:102FF000206C612063616D61007573616E646F2088
:103000006C6120686F6A612064650063616C69624D
:10301000726163696F6E202020203C4F4B3E00415F
:103020006A75737465206C6120706572696C6C617F
:10303000203300646562616A6F206465206C6120E2
:1030400063616D61007573616E646F206C612068EF
:103050006F6A612064650063616C696272616369B3
:103060006F6E202020203C4F4B3E00416A757374E8
:1030700065206C6120706572696C6C61203400643D
:103080006562616A6F206465206C612063616D61B7
:10309000007573616E646F206C6120686F6A6120D7
:1030A00064650063616C6962726163696F6E2020A0
:1030B00020203C4F4B3E009831042D040000A431E9
:1030C0000422042000AE310423042000B83104247B
:1030D000042000C2310425042000D031042604203D
:1030E00000DE31042F040000EA310000000000FD82
:1030F000310000000000123200000000001F32000A
:1031000000000000233200000000002C320000000C
:103110000000353200000000003E320000000000D8
:103120004232000000000053320000000000543220
:10313000000000000055320000000000593200007D
:10314000000000673200000000006B320000000049
:10315000007C320000000000823289329032452724
:1031600097329E32A532AC324527B332BA32C132E1
:10317000C832CF32D632DD32E432EB32F23245277A
:10318000F932003307330E33452715331C3323330D
:103190002A33D72331333833436F6E74726F6C3AEE
:1031A0002558680050494420503A2558700050492D
:1031B0004420493A2558690050494420443A25584A
:1031C00064004472697665204D696E3A25586D0039
:1031D0004472697665204D61783A25584D00504912
:1031E00044204D61783A25584400052565632F2514
:1031F000456302422565422F254562020056656CF3
:1032000020203A256F6D25252520202020202020F4
:103210002000466C756A6F3A256F662525250025C6
:103220006F7300583A257830206D6D00593A257833
:1032300031206D6D005A3A257832206D6D00256F72
:10324000730046696C616D656E746F3A2578342041
:10325000206D000000256F73005072696E74696EF6
:10326000672074696D65002555740046696C616D51
:10327000656E74207072696E7465640025556620F1
:103280006D003F330100000000513303E8030000EC
:10329000543303542402005733030F1000106333D8
:1032A00003101000106F330311100010813303124C
:1032B000100010933303BD040000A03303BB0400CF
:1032C00000B1330347040000BE3303BE040000CB4B
:1032D0003303BC040000DC330337040000E933008F
:1032E00000000000F2330000000000FB330000008B
:1032F0000000083400000000000D34033204000018
:10330000193403330400002534033404000031343D
:1033100003350400004534024D340000543402608B
:1033200034000067340271340000783402863400BF
:10333000008D3403060400009F340307040000449A
:103340004554454E455220696D70726573696F6EC4
:10335000004E6F0053690043616D626961722041E4
:1033600042530043616D6269617220504C410043D9
:10337000616D6269617220414253206120504C416D
:103380000043616D6269617220504C4120612041AF
:10339000425300414253202D2D3E2043616D610078
:1033A000414253202D2D3E204578747275736F7203
:1033B00000414253202D2D3E20544F444F00504C8D
:1033C00041202D2D3E2043616D6100504C41202D48
:1033D0002D3E204578747275736F7200504C4120F9
:1033E0002D2D3E20544F444F00453A257833206D13
:1033F0006D00202020202020202000202020256576
:10340000632F254563024300202020200045636888
:103410006F2020203A25646F00496E666F202020BF
:103420003A256469004572726F7273203A256465AB
:1034300000456A65637563696F6E20766163696FC5
:103440003A2564640047656E6572616C0002000095
:103450000400AF344163656C65726163696F6E002F
:103460000200000900B73456656C6F6369646164DB
:10347000000200000700C9344578747275736F72DA
:103480002F43616D61000200001100D73447756160
:103490007264617220656E20454550524F4D004365
:1034A0006172676120646520454550524F4D00456B
:1034B00027F9340035073545270E3515351C3523DA
:1034C000352A35313538353F35452746354D355464
:1034D000355B35623569354527703577357E3585FD
:1034E000358C3593359A35B730BE30C530CC30D3B6
:1034F00030DA30A135A835E130AF350410040000D2
:10350000BC3502CB350000D23502E0350000E7358E
:103510000408040000F3350409040000FF35040A20
:103520000400000B36040B0400001736040C0400E2
:10353000002336040D0400002F36040E040000386A
:1035400036040F040000433604140400004D360412
:1035500015040000573604160400006136041104F7
:1035600000006C36041204000077360413040000D7
:10357000823604290400008F36042C0400009C3697
:10358000042B040000A736042A040000B036042EE1
:10359000040000C236044D040000D936044C040077
:1035A00000EE360422044000FB36042604400042AC
:1035B000617564726174653A256F63004D6F746F55
:1035C0007220496E61637469766F00032004020003
:1035D0000B374D61782E20496E61637469766F00F8
:1035E00003580402000F375072696E7420583A2550
:1035F0006178005072696E7420593A2561790050E3
:1036000072696E74205A3A25617A004D7565766547
:1036100020583A256158004D7565766520593A2540
:103620006159004D75657665205A3A25615A004A00
:1036300065726B3A25616A005A2D4A65726B3A25AC
:10364000614A0058204D61783A2566780059204D2E
:1036500061783A256679005A204D61783A25667A74
:10366000005820486F6D653A256658005920486F0C
:103670006D653A256659005A20486F6D653A256692
:103680005A005061736F732F4D4D3A2553650053A7
:10369000746172742046523A255866004D61782054
:1036A00046523A255846004163656C3A2558410018
:1036B0005469656D706F2045737461622E3A2558A8
:1036C00077004573706572616E646F20556E696432
:1036D00061643A2558556D6D004573706572616E71
:1036E000646F2054656D702E255854024300446564
:1036F000616474696D653A25587000436F6E747229
:103700006F6C2050574D3A25584D0013371A37210A
:103710003728372F37000000000041370000000035
:10372000004D3700000000005F370000000000443B
:1037300069732E20446573707565733A202569732B
:10374000005B6D696E5D20303D4F666600446973B5
:103750002E20446573707565733A20256970005B8F
:103760006D696E5D20303D4F6666000000210024CB
:103770000027002A002D0030003300010100000462
:103780000107010A0100002200250028002B002E5D
:10379000003100340002010000050108010B0100A6
:1037A0000020002300260029002C002F00320000FA
:1037B00001000003010601090105050505070508CB
:1037C000080808020202020A0A08080404040401A4
:1037D00001010101010101030303030303030304C6
:1037E0000707070C0C0C0C0C0C0C0C020202020656
:1037F000060606060606060B0B0B0B0B0B0B0B0146
:1038000002102020080810204010204080020102F1
:1038100001080402010102040810204080804020B9
:1038200010080402018004020180402010080402F4
:103830000108040201010204081020408001020472
:1038400008102040800000090A02080B0C0D070632
:103850000304010000000000000000000000000060
:103860000000000000000000000000000000000058
:103870000011100F00000000000000000000000018
:103880000000000000000000000000494E46494EC4
:103890004954594E414ECDCCCC3D0AD7233C17B7A5
:1038A000D13877CC2B329595E6241FB14F0A000012
:1038B00020410000C84200401C4620BCBE4CCA1B30
:1038C0000E5AAEC59D74956F878FFBA10AC6112451
:1038D0001FBECFEFD1E2DEBFCDBF00E00CBF13E0D3
:1038E000A0E0B2E0E2E1F3EF01E00BBF02C007901D
:1038F0000D92AE35B107D9F71BBE11E1AEE5B3E0CD
:1039000001C01D92A83CB107E1F718E3CEECD8E363
:1039100004C02297FE010E9439F9C63CD107C9F7BD
:103920000E94EBF00C9487F90C940000CF93DF9386
:10393000BC018230910510F462E070E0A091C411E6
:10394000B091C511ED01E0E0F0E040E050E021C0B1
:10395000888199818617970769F48A819B813097BE
:1039600019F09383828304C09093C5118093C4118E
:10397000FE0134C06817790738F44115510519F074
:103980008417950708F4AC01FE018A819B819C0194
:10399000E9012097E9F641155105A9F1CA01861BF5
:1039A000970B049708F4BA01E0E0F0E02AC08D918B
:1039B0009C91119784179507F9F46417750781F4A2
:1039C00012968D919C911397309719F0938382836F
:1039D00004C09093C5118093C411FD0132964CC070
:1039E000CA01861B970BFD01E80FF91F61937193C4
:1039F00002978D939C9340C0FD01828193819C012D
:103A0000D9011097A1F68091C2119091C311892B11
:103A100041F480910F02909110029093C311809312
:103A2000C21140911102509112024115510541F409
:103A30004DB75EB780910D0290910E02481B590B55
:103A40002091C2113091C311CA01821B930B8617BA
:103A5000970780F0AB014E5F5F4F8417950750F0DA
:103A6000420F531F5093C3114093C211F901619348
:103A7000719302C0E0E0F0E0CF01DF91CF910895B3
:103A8000CF93DF93009709F450C0EC0122971B827B
:103A90001A82A091C411B091C511109709F140E0AC
:103AA00050E0AC17BD0708F1BB83AA83FE0121914A
:103AB0003191E20FF31FAE17BF0779F48D919C91FE
:103AC0001197280F391F2E5F3F4F39832883129695
:103AD0008D919C9113979B838A834115510571F4B5
:103AE000D093C511C093C41120C012968D919C91A2
:103AF0001397AD01009711F0DC01D3CFFA01D38306
:103B0000C28321913191E20FF31FCE17DF0769F4D1
:103B100088819981280F391F2E5F3F4FFA01318329
:103B200020838A819B8193838283DF91CF91089543
:103B3000A0E0B0E0EEE9FDE10C9456F9EC015B0188
:103B40006115710519F0FB0191838083F9908F2D28
:103B500090E00E943DF9892BC9F7FDE2FF1621F4A0
:103B6000F990EE24E39405C02BE2F21609F4F990E3
:103B7000EE248E0101501040C8016BE878E343E069
:103B800050E00E942720892B01F58E010E5F1F4F08
:103B9000C8016EE878E345E050E00E942720892BB9
:103BA00019F48E01095F1F4FA114B10419F0F5013A
:103BB00011830083E0FC04C070E090E080E814C052
:103BC00070E090E080E86FEF08C1C80163E978E336
:103BD00043E050E00E942720892B69F4A114B1042E
:103BE00029F470E090E080EC6FE7F7C02296F501D1
:103BF000D183C083F6CF8824992440E050E060E070
:103C000070E0EF2DE053EA30A0F5F2E0EF2A8E2DC0
:103C100090E09C0128703070E2FE06C0232B79F5FD
:103C20000894811C911C2BC0232B19F00894810847
:103C30009108DB01CA0112E0880F991FAA1FBB1F60
:103C40001A95D1F7480F591F6A1F7B1F440F551F44
:103C5000661F771F4E0F511D611D711D483929E9DF
:103C6000520729E9620729E1720748F084E0E82A4F
:103C700006C0EE3F31F4E3FC39C098E0E92AF99040
:103C8000C0CFE53311F0E53189F529912D3219F4D2
:103C9000E0E1EE2A05C02B3219F081E090E003C08C
:103CA000299182E090E0E22FE053EA3018F0C81B3F
:103CB000D90B1CC020E030E0FCE020383F075CF46A
:103CC000C901880F991F880F991F280F391F220FCC
:103CD000331F2E0F311DE991E053EA3068F3E4FE03
:103CE00003C0309521953F4F820E931ECE2CDD24CC
:103CF000E1FE07C0A114B10421F02197F501D183A1
:103D0000C083CB01BA010E94B5F57B018C01F3E0C1
:103D1000CF22DD2423E0C216D10421F417FB109535
:103D200017F9109557016801C801B70120E030E08C
:103D300040E050E00E9415F5882309F44AC097FE40
:103D40000DC02AEAE22E28E3F22E90948194910885
:103D50009394C0E2D0E000E010E012C092ECE92EB3
:103D600098E3F92EF6CFF7012591359145915491BD
:103D7000C601B5010E94C5F75B016C018C1A9D0A52
:103D80008C169D0684F7D595C7950F5F1F4F06309B
:103D9000110529F08CEF9FEFE80EF91EF1CFC50158
:103DA000D6017C018D018C2D880F8D2D881F8F3FB2
:103DB00051F0C601B50120E030E040E050E00E9443
:103DC00015F5882331F482E290E09093C711809337
:103DD000C6117E2D9F2D802F612F272F392F482F21
:103DE000562FB901CA01CDB7DEB7ECE00C9472F9D9
:103DF0002F923F925F926F927F928F929F92AF929B
:103E0000BF92CF92DF92EF92FF920F931F93CF93C7
:103E1000DF938C011B01EA016115710519F0FB01AB
:103E200091838083209749F0CE010297839728F0F1
:103E300020E030E040E050E0F6C0F801A1908F01B2
:103E40008A2D90E00E943DF9892BB9F7FDE2AF166B
:103E500031F4F801A1908F015524539407C0FBE27F
:103E6000AF1619F4F801A1908F015524209719F08D
:103E7000C031D105C1F4F0E3AF1679F4F8018081C7
:103E8000883711F0883549F4F801A1800E5F1F4F83
:103E9000F2E05F2AC0E1D0E006C0209721F480E381
:103EA000A816E9F427C0C830D10531F1C930D105D1
:103EB00024F4C230D10531F50CC0CA30D10589F0E7
:103EC000C031D105F9F4C12CD12CE12CB8E0FB2E86
:103ED00028C0C12CD12CE12CA0E4FA2E22C0CAE0CB
:103EE000D0E0FCECCF2EFCECDF2EFCECEF2EFCE067
:103EF000FF2E17C0C8E0D0E0C12CD12CE12CE0E1AE
:103F0000FE2E0FC09E01442737FD4095542F60E0E0
:103F100070E080E090E80E94EEF8C901DA016C01DF
:103F20007D0120E030E040E050E060E03E01882488
:103F300077FC8094982C70EDB72EBA0CE9E0EB1565
:103F400070F48A2D81548A3118F499ECB92E06C088
:103F50008A2D81568A3150F589EAB82EBA0C8B2DFC
:103F600090E08C179D0714F56F3FE1F0C216D30661
:103F7000E406F506B0F0CA01B901A40193010E945C
:103F80009BF89B01AC012B0D311D411D511D2130B2
:103F9000F0E03F07F0E04F07F0E85F0710F461E062
:103FA00001C06FEFF801A1908F01C5CF211431043A
:103FB00081F0662331F001501040F101118300833C
:103FC00008C051FE1AC002501040F1011183008355
:103FD00014C067FF12C050FC05C02FEF3FEF4FEF3A
:103FE0005FE704C020E030E040E050E882E290E08B
:103FF0009093C7118093C61116C050FE08C050950B
:104000004095309521953F4F4F4F5F4F0CC057FF64
:104010000AC082E290E09093C7118093C6112FEFFF
:104020003FEF4FEF5FE7B901CA01DF91CF911F91D9
:104030000F91FF90EF90DF90CF90BF90AF909F9047
:104040008F907F906F905F903F902F900895FB012D
:10405000DC014150504088F08D9181341CF08B354B
:104060000CF4805E659161341CF06B350CF4605E7D
:10407000861B611171F3990B0895881BFCCFFB011E
:10408000DC0102C001900D9241505040D8F70895D4
:10409000FB01DC010D900020E9F7119701900D92D2
:1040A0000020E1F70895FC018191861721F0882313
:1040B000D9F7992708953197CF010895FB01DC01C5
:1040C0008D91019080190110D9F3990B0895FB018E
:1040D000DC0101900D920020E1F70895FB01DC0165
:1040E0004150504048F001900D920020C9F701C0A6
:1040F0001D9241505040E0F70895FC0181E090E0AE
:104100000190061609F4CF010020D1F70197089518
:10411000089560911302709114028091150290919C
:104120001602681779070CF00895709316026093D1
:1041300015028BE495E00E94BC340895AF92BF92C3
:10414000CF92DF92EF92FF920F931F93CF93DF9363
:10415000EC01893191050CF05FC0C9E1D0E06E013E
:10416000BE01882777FD8095982F0E94B7F52AE039
:1041700037ED43E25CE30E94C5F77B018C01D092EE
:10418000280DC092270DE0916703F0916803E45871
:10419000FF4FA080B180C280D380C601B50120E06E
:1041A00030E040E050E00E9415F518160CF048C0D1
:1041B000C801B70120E030E040E850E40E94C5F7B4
:1041C0007B018C01C601B501A60195010E94C5F7CE
:1041D0002BED3FE049E450E40E94C5F79B01AC01A0
:1041E000C801B7010E941CF5609344037093450316
:1041F000809346039093470389E995E0BE010E94AE
:10420000BC34DF91CF911F910F91FF90EF90DF9021
:10421000CF90BF90AF900895893C91050CF49FCF4B
:10422000C8ECD0E088ECC82ED12C0F2EF0E0EF2E99
:10423000F0E0FF2EF0E00F2FF0E41F2FF02D9FCFC6
:10424000E0924403F0924503009346031093470322
:10425000D3CFEF92FF920F931F93CF93DF93EC0195
:10426000893191050CF03FC0C9E1D0E0BE0188273B
:1042700077FD8095982F0E94B7F57B018C016091A6
:10428000250D7091260D882777FD8095982F0E9427
:10429000B7F59B01AC01C801B7010E941CF59B0159
:1042A000AC016091210D7091220D8091230D9091B0
:1042B000240D0E94C5F76093210D7093220D809309
:1042C000230D9093240DD093260DC093250D8AE8DD
:1042D00095E0BE010E94BC34DF91CF911F910F91F8
:1042E000FF90EF90089581E0C53FD8070CF4BECF52
:1042F000C4EFD1E00F2EF0E0EF2EF0E0FF2EFAEF4A
:104300000F2FF3E41F2FF02DBACF0E94A1719C0153
:1043100080911302909114022817390724F43093E6
:1043200014022093130208950E94DB6D08952F92CA
:104330003F924F925F926F927F928F929F92AF9235
:10434000BF92CF92DF92EF92FF920F931F93DF9372
:10435000CF93CDB7DEB7AE970FB6F894DEBF0FBEE2
:10436000CDBF99A788A78091A00C9091A10CA09196
:10437000A20CB091A30C89879A87AB87BC878091E8
:10438000A40C9091A50CA091A60CB091A70C8D87C0
:104390009E87AF87B88B8091A80C9091A90CA091B3
:1043A000AA0CB091AB0C898B9A8BAB8BBC8B88A57C
:1043B00099A50E94C593882309F44AC1CE010196AC
:1043C0009CA78BA788E0EBA5FCA511928A95E9F73D
:1043D000E8A5F9A5F281FAA7FAA5F0FD52C10F2EC2
:1043E000F0E0AF2EF0E0BF2EF0E0CF2EF0E0DF2EB9
:1043F000F02DF0915D0CFFA3FF2351F0C601B50134
:1044000023E333E34BEC51E40E94C5F75B016C01FD
:10441000A982BA82CB82DC828AA581FD39C10F2EA6
:10442000F0E0EF2EF0E0FF2EF0E00F2FF0E01F2F76
:10443000F02DFFA1FF2351F0C801B70123E333E3BF
:104440004BEC51E40E94C5F77B018C01ED82FE82AA
:104450000F831887CE0145969EA78DA780E1EDA515
:10446000FEA511928A95E9F76090A00C7090A10CBE
:104470008090A20C9090A30C6D8A7E8A8F8A988E71
:104480002090A40C3090A50C4090A60C5090A70C46
:10449000298E3A8E4B8E5C8E8091A80C9091A90C3F
:1044A000A091AA0CB091AB0C8D8F9E8FAF8FB8A34B
:1044B0006091C40C7091C50C8091C60C9091C70C92
:1044C0000E94B7F520916A0C30916B0C40916C0CF6
:1044D00050916D0C0E94C5F769A37AA38BA39CA38E
:1044E000FAA5F2FFE7C0E8A5F9A5A6A4B7A4C0A85D
:1044F000D1A8FFA1FF2309F0D2C0C401B3012985CF
:104500003A854B855C850E944EF43B014C01C2010B
:10451000B1012D853E854F8558890E944EF41B01BF
:104520002C01C601B50120E030E040E850E40E94D3
:10453000C5F7A60195010E94C5F77B018C01C40156
:10454000B301A40193010E94C5F79B01AC01C8010E
:10455000B7010E944EF47B018C01C201B101A2019E
:1045600091010E94C5F79B01AC01C801B7010E94EF
:104570004EF40E9432F87B018C01C401B301A20108
:1045800091010E9430F79B01AC0117FB109517F9C0
:104590001095C801B7010E941CF57B018C01A80190
:1045A00097010E947FF8882309F0A9C0E8A5F9A522
:1045B0000084F185E02DFEA3EDA3339709F491C0AB
:1045C000C601B50120E030E040E050E00E9415F562
:1045D00088230CF48BC0C201B101A80197010E948D
:1045E000C5F79B01AC01C401B3010E944EF420E069
:1045F00030E040E05FE30E94C5F769837A838B83F4
:104600009C83C401B301A80197010E94C5F7A201D0
:1046100091010E944FF420E030E040E05FE30E940F
:10462000C5F76D837E838F839887E0E08DA19EA17F
:10463000029709F454C0CE010996BE016B5E7F4F0C
:10464000AE014F5F5F4F96018501EE2E0E945D73B4
:10465000AE960FB6F894DEBF0FBECDBFCF91DF91FF
:104660001F910F91FF90EF90DF90CF90BF90AF9090
:104670009F908F907F906F905F904F903F902F9082
:104680000895E8A5F9A5A6A0B7A0C0A4D1A4B1CE6D
:10469000E8A5F9A5E2A4F3A404A515A5CACEC60110
:1046A000B50123E333E34BEC51E40E94C5F75B0112
:1046B0006C0123CFC601B501A80197010E9430F714
:1046C0005B016C01E8A5F9A50084F185E02DFEA34E
:1046D000EDA3E0E08DA19EA1029709F0ACCFE1E04F
:1046E000AACF17FB109517F910956ACF17FB1095F5
:1046F00017F91095D7FAD094D7F8D0946CCF89EEEB
:1047000095E00E941335A4CF6F927F928F929F9273
:10471000AF92BF92CF92DF92EF92FF920F931F93CF
:10472000DF93CF9300D00F92CDB7DEB74091430D0A
:104730005091440D6091450D7091460DFE013196EA
:1047400021E830E0F999FECF32BD21BDF89A80B55D
:1047500080832438310521F031962F5F3F4FF2CF0F
:10476000CB01BA012FE632E143E85AE30E94C5F7D4
:1047700029813A814B815C810E944FF4AB01BC01DD
:1047800081EB95E022E00E941C3482ED95E00E94CE
:10479000FE32E091E702F091E80263857485858539
:1047A000968520E030E040E751E40E9423F7181698
:1047B0000CF496C0AA24BB246501F999FECF8DE7BD
:1047C00090E092BD81BDF89A50B5F999FECF8EE781
:1047D00090E092BD81BDF89A40B5F999FECF8FE780
:1047E00090E092BD81BDF89A30B5F999FECF80E88E
:1047F00090E092BD81BDF89A20B5852F942FA32F0C
:10480000B22FA80EB91ECA1EDB1EC601B50120E8D4
:1048100031E541E050E00E9410F9922E832E742E73
:10482000652E622F732F842F952F20E83EEA4EEFDE
:104830005FEF0E949BF87B018C01EA0CFB1C0C1DB6
:104840001D1D83EC95E0492D582D672D762D0E9476
:104850002333C801B70120E13EE040E050E00E9470
:1048600010F9D22EC32EB42EA52E85ED95E0422F41
:104870005C2D6B2D7A2D0E9423336D2D7C2D8B2D7D
:104880009A2D20EF31EF4FEF5FEF0E949BF8E60E7D
:10489000F71E081F191FC801B7012CE330E040E0E4
:1048A00050E00E9410F98CED95E0BA01A9010E9438
:1048B000233384EE95E00E9402350F900F900F9005
:1048C0000F90CF91DF911F910F91FF90EF90DF90AC
:1048D000CF90BF90AF909F908F907F906F900895F2
:1048E0000E9473F120913F0D3091400D4091410D98
:1048F0005091420D621B730B840B950B28EE33E035
:1049000040E050E00E94EEF8C901DA015C016D015F
:1049100054CF1F93182FE0916703F091680340A9CB
:1049200051A962A973A988E695E022E00E941C348F
:10493000E0916703F091680344A955A966A977A996
:1049400087E895E020E00E941C340E94B54FAB013F
:10495000BC018BE695E022E00E941C344091A50248
:104960005091A6026091A7027091A80287E895E095
:1049700020E00E941C34112321F5E0919A02F0E01E
:10498000E25DFA4F608189E795E070E00E94343380
:10499000E0911802EF3F41F1F0E0E25DFA4F6081F3
:1049A0008FE695E070E00E94343388E095E06DE09A
:1049B0000E94676F88E095E06AE00E94676F1F9130
:1049C00008958EE795E061E070E00E9434336CEF6B
:1049D0007FE080919D0290919E02681B790B83E895
:1049E00095E00E943433C9CFE0916703F0916803EA
:1049F000E081F0E0E25DFA4F6081D2CF2F923F92EA
:104A00004F925F926F927F928F929F92AF92BF92DE
:104A1000CF92DF92EF92FF920F931F93DF93CF938A
:104A2000CDB7DEB728970FB6F894DEBF0FBECDBF67
:104A30004C01A090A00CB090A10CC090A20CD09002
:104A4000A30C2090A40C3090A50C4090A60C509084
:104A5000A70C8091A80C9091A90CA091AA0CB091E0
:104A6000AB0C89839A83AB83BC83C601B501A601D5
:104A700095010E947FF8882309F066C06624772498
:104A800086017501E89417F9C801B7012FEF3FEFD0
:104A90004FE75FE70E947FF8882309F429C131E0DE
:104AA000632E712C91E06916710409F04DC0C201AA
:104AB000B101A20191010E947FF8882309F044C04E
:104AC0006624772482017101E89417F9C801B701BF
:104AD0002FEF3FEF4FE75FE70E947FF8882309F44D
:104AE0003FC121E0622E712CA1E06A16710461F5CC
:104AF00069817A818B819C819B01AC010E947FF846
:104B0000882311F566247724E980FA800B811C81C3
:104B1000E89417F9C801B7012FEF3FEF4FE75FE7C0
:104B20000E947FF8882309F027C1C801B7012FEF41
:104B30003FEF4FE75FE70E9415F518160CF01CC118
:104B4000B1E06B16710419F0C4010E941335209175
:104B5000C80C3091C90C4091CA0C5091CB0C60909C
:104B6000CC0C7090CD0C8090CE0C9090CF0C80919E
:104B7000D00C9091D10CA091D20CB091D30C8D831C
:104B80009E83AF83B88780915D0C882309F0BCC0F9
:104B90000F2EF0E0EF2EF0E0FF2EF0E80F2FFFE3F6
:104BA0001F2FF02DCA01B901A60195010E944FF4F3
:104BB0009B01AC01C801B7010E94C5F7AB01BC0164
:104BC00085E595E022E00E941C3480915D0C8823ED
:104BD00009F0B0C00F2EF0E0EF2EF0E0FF2EF0E86D
:104BE0000F2FFFE31F2FF02DC401B301A20191018C
:104BF0000E944FF49B01AC01C801B7010E94C5F7A8
:104C0000AB01BC018CE595E022E00E941C34809150
:104C10005D0C882309F083C00F2EF0E0EF2EF0E04A
:104C2000FF2EF0E80F2FFFE31F2FF02D6D817E8107
:104C30008F81988529813A814B815C810E944FF454
:104C40009B01AC01C801B7010E94C5F7AB01BC01D3
:104C500080E695E023E00E941C3420919C0C30916A
:104C60009D0C40919E0C50919F0CA0906A0CB090AE
:104C70006B0CC0906C0CD0906D0C80915D0C8823F7
:104C800009F063C00F2EF0E0EF2EF0E0FF2EF0E809
:104C90000F2FFFE31F2FF02DCA01B9010E94B7F5B6
:104CA000A60195010E94C5F7A80197010E94C5F7CA
:104CB000AB01BC0184E695E024E00E9431342896E3
:104CC0000FB6F894DEBF0FBECDBFCF91DF911F911D
:104CD0000F91FF90EF90DF90CF90BF90AF909F909B
:104CE0008F907F906F905F904F903F902F9008959E
:104CF000C801B7012FEF3FEF4FE75FE70E9415F5BF
:104D000018160CF4CFCECBCE0F2EF0E7EF2EF2E438
:104D1000FF2EF1E20F2FFDE31F2FF02D43CF0F2EBB
:104D2000F0E7EF2EF2E4FF2EF1E20F2FFDE31F2F4D
:104D3000F02D7CCF0F2EF0E7EF2EF2E4FF2EF1E204
:104D40000F2FFDE31F2FF02D4FCF0F2EF0E7EF2E8B
:104D5000F2E4FF2EF1E20F2FFDE31F2FF02D9CCF89
:104D6000C801B7012FEF3FEF4FE75FE70E9415F54E
:104D700018160CF4B9CEB5CE91E0692E712CE0CEA8
:104D80001F93182F0E94808F80916203882311F453
:104D90001F910895109262030E94EE5B80911702AA
:104DA000815080931702882339F480915F03882310
:104DB00051F485E08093170287E890E1612F0E940B
:104DC00006EE1F9108950E949D53F3CF09C00E94E3
:104DD000AA6A80E00E94C02687E890E10E9409C686
:104DE0008091570C882399F708951F93CF93DF93F1
:104DF00097FD33C0EC018F3F910509F0DCF500977A
:104E000061F18091D70C88608093D70C1C2F6623AA
:104E100071F58091310590E0C817D907C1F087EA94
:104E200095E0BE010E94BC3480915E03882379F432
:104E300020913105822F90E08C179D0744F4C535F1
:104E4000D1052CF42223C9F488E080935E031093EB
:104E50003105DF91CF911F9108958091D70C877F05
:104E60008093D70CC0E0D0E010E0662391F20E945E
:104E7000E626CFCFCFEFD0E0C4CF82E080935E03B1
:104E8000E6CF5F926F927F928F929F92AF92BF9286
:104E9000CF92DF92EF92FF920F931F93CF93DF9306
:104EA000EC01888599858B30910509F47DC18C30A2
:104EB0009105F8F08C31910509F459C08D319105B7
:104EC00008F44DC08B35910509F440C18C3591052E
:104ED00009F477C08A359105B1F410928E0CCB5A43
:104EE000DF4F8881882309F183E693E00E94203513
:104EF0001CC08430910598F08430910509F466C196
:104F00000A9709F45AC18091420382FF0EC08AE3D6
:104F100095E00E94FE32CE010E94976806C002977B
:104F200008F422C1CE010E9497210E9473F1609380
:104F30002605709327058093280590932905DF9116
:104F4000CF911F910F91FF90EF90DF90CF90BF9086
:104F5000AF909F908F907F906F905F900895843175
:104F6000910559F1459779F610925D0CDECF2881B5
:104F70003981C90188739070892B09F461C126FDBC
:104F800065C1C9019695879596958795969587955C
:104F9000582F5170C901929582958F7089279F7003
:104FA0008927682F617025FD64C140E0852F0E942C
:104FB000519980E00E94A78EB8CF81E080935D0C6C
:104FC000B4CFD090C80CF090C90CE090CA0C0091FE
:104FD000CB0CA090CC0C9090CD0CC090CE0CB0908F
:104FE000CF0C6090D00C5090D10C8090D20C70906F
:104FF000D30C188113FF22C02A853B854C855D8523
:1050000080915D0C882351F0CA01B90123E333E399
:105010004BEC51E40E94C5F79B01AC01CA01B901F8
:105020002091A00C3091A10C4091A20C5091A30CA6
:105030000E944EF4D62EF72EE82E092F14FF22C020
:105040002E853F854889598980915D0C882351F0D0
:10505000CA01B90123E333E34BEC51E40E94C5F7E5
:105060009B01AC01CA01B9012091A40C3091A50C9F
:105070004091A60C5091A70C0E944EF4A62E972E9C
:10508000C82EB92E15FF22C02A893B894C895D891B
:1050900080915D0C882351F0CA01B90123E333E309
:1050A0004BEC51E40E94C5F79B01AC01CA01B90168
:1050B0002091A80C3091A90C4091AA0C5091AB0CF6
:1050C0000E944EF4662E572E882E792E2D2D3F2DC0
:1050D0004E2D502FB901CA01EA2DF92DAC2DBB2D53
:1050E0009F01AD01E62DF52DA82DB72D7F018D0176
:1050F0000E94868E888186FF18CF2E893F89488D31
:10510000598D80915D0C882351F0CA01B90123E3C8
:1051100033E34BEC51E40E94C5F79B01AC01CA019B
:10512000B90120910203309103034091040350918F
:1051300005030E94C5F70E9484F560939C0C709350
:105140009D0C80939E0C90939F0CEFCE81E08093FA
:105150008E0CCB5ADF4F8881882309F4E6CE8EE48B
:1051600093E00E942035E1CE8881998192FF0EC0A4
:105170008E8D9F8DA8A1B9A10097A105B10509F455
:1051800074C08091D50C80628093D50CCE010E94B2
:10519000C593882321F080E061E00E94C88481E00B
:1051A00061E00E943973C1CE8091670390916803DA
:1051B00060E040E00E949E61B8CE809167039091CC
:1051C000680361E040E00E949E61AFCE0E94E62647
:1051D0008881998193FD2FC0AA24BB24650192FF89
:1051E0000CC06E8D7F8D88A199A128EE33E040E040
:1051F00050E00E949BF85B016C010E9473F17B01FF
:105200008C01EA0CFB1C0C1D1D1D05C00E94AA6A26
:1052100081E00E94C0260E9473F1A8019701261B1D
:10522000370B480B590BDA01C90180509449A5434B
:10523000B74760F37ACEAAA0BBA0CCA0DDA0CFCFA9
:1052400026FD04C041E051E061E0B0CE10929C0C1C
:1052500010929D0C10929E0C10929F0CC9018873A5
:105260009070892B09F4A5CE8CCE8091D50C8F7DC2
:105270008BCF41E09BCEAF92BF92CF92DF92EF9265
:10528000FF920F931F93CF93DF93EC018E819F8149
:105290008737910509F4C9C28837910570F121E07B
:1052A0008F32920709F4CDC231E08033930708F4BE
:1052B0005EC0A1E0853F9A0709F46FC3B1E0863F65
:1052C0009B0708F4F7C042E08A35940709F44EC101
:1052D00052E08B35950708F033C6A2E088359A076F
:1052E00009F47FC1B2E089359B0708F02EC1865FC3
:1052F000914039F50E947C3B2FC08235910509F41D
:105300009DC28335910508F472C08A36910509F46F
:10531000CCC18B36910508F097C08C35910509F406
:10532000D6C18D35910508F02DC58435910509F458
:105330001DC38435910508F415C38535910509F41D
:105340009DC18091420382FF07C08AE395E00E94DD
:10535000FE32CE010E949768DF91CF911F910F918D
:10536000FF90EF90DF90CF90BF90AF9008958D3C6D
:10537000910509F457C28E3C910508F0B8C0893CEC
:10538000910509F4F9C38A3C910508F032C48E3BBB
:10539000910509F45BC3883C910509F40DC38C3871
:1053A000910579F60E9452538823B1F60E9473F159
:1053B000609326057093270580932805909329050F
:1053C0008091420383FDC8CF8881998192FFC4CF29
:1053D000EE8CFF8C08A119A190FD9DC7DD24C801AA
:1053E000B7010E94B7F54D2D0E94A153B5CF8B3167
:1053F000910509F493C28C31910508F443C08032C1
:10540000910509F49DC28132910508F0A7C58D313F
:10541000910509F4A1CF8D31910508F484C24E970E
:1054200009F08FCF8881998197FF96CF8FEC9DE00F
:1054300060E00E9413B4CE5ADF4F688179818FEC0F
:105440009DE00E9435A288CF8237910509F4E5C11D
:105450008337910508F0D6C58D36910509F499C1B9
:105460008F36910509F474C18B36910509F069CF27
:105470006981669566956695617080E090E00E940E
:10548000F5266ACF8731910509F435C28831910537
:1054900008F004C58531910509F428C286319105CB
:1054A00008F01FC2449709F04CCF8FEC9DE00E949A
:1054B0009EA352CF21E08039920709F40FC231E058
:1054C0008139930708F017C441E08336940709F443
:1054D000F3C151E08836950709F4EBC18E55914030
:1054E00009F02FCF8CEE91E00E94023535CF8C3D34
:1054F000910509F47EC08D3D910508F0F9C48F3CFB
:10550000910509F47FC08F3C910508F466C0813D88
:10551000910509F016CF8881998192FF1DCF60E037
:105520008E8D9F8DA8A1B9A10097A105B10509F4A1
:105530003AC661E08091D60C82608093D60C8BEEE7
:1055400092E070E00E94BC3407CF8881998192FF7D
:105550008CC58E8D9F8DA8A1B9A1181619061A06A3
:105560001B060CF082C50E948B57F6CE0E94E626E1
:105570008881998192FF18C060E08E8D9F8DA8A1CF
:10558000B9A1181619061A061B060CF016C661E01A
:105590008091D60C80618093D60C89E293E070E014
:1055A0000E94BC348881998193FFD6CE60E08AA1A5
:1055B0009BA1ACA1BDA1181619061A061B060CF07A
:1055C000F6C561E08091D60C80628093D60C88E3AA
:1055D00093E070E00E94BC34BFCECE010E94E04D4B
:1055E000BBCE87E890E168E873E141E00E945CDFB0
:1055F000B3CE8881998192FFBCC58E8D9F8D0E940C
:105600002921AACE2881398123FF0CC08A859B8558
:10561000AC85BD858093290D90932A0DA0932B0D09
:10562000B0932C0DC90126FDADC585FF0CC08A893C
:105630009B89AC89BD8980932D0D90932E0DA093ED
:105640002F0DB093300D4091290D50912A0D60918E
:105650002B0D70912C0D82E796E022E00E941C3405
:1056600040912D0D50912E0D60912F0D7091300DA8
:1056700088E796E022E00E9431346ECE88819981DD
:1056800092FF1BC56E8D7F8D88A199A128EE33E016
:1056900040E050E00E949BF860932A0570932B0530
:1056A00080932C0590932D0557CE8091D60C83FDC9
:1056B00053CE2881398132FF84C58E8D9F8D632F13
:1056C00066956695669561700E94F52645CE28819F
:1056D000398123FF0CC08A859B85AC85BD8580936D
:1056E000F6029093F702A093F802B093F90224FF18
:1056F0000CC08E859F85A889B9898093FA02909302
:10570000FB02A093FC02B093FD0225FF0CC08A8926
:105710009B89AC89BD898093FE029093FF02A09380
:105720000003B09301030E94909B888186FF14CEF2
:10573000E0916703F09168038E899F89A88DB98DE8
:1057400085879687A787B08B80810E94435A04CEB5
:105750002881398132FF05C08E8D809342032881D4
:10576000398133FDB3C42091420323FFF5CD60E0BE
:1057700070E080E090E040E020E000E00E943E58D1
:1057800060E070E080E090E040E020E00E943E5861
:10579000E3CD0E945253882309F0DECD0E9473F1BD
:1057A000609326057093270580932805909329051B
:1057B0008091420383FDD0CD0E94E626E0916703ED
:1057C000F09168032881398131FF09C0CC5ADF4F3D
:1057D0008881C455D040882311F4E9E1F2E032FF1A
:1057E00011C0EE8CFF8C08A119A1C08030FDA6C5A8
:1057F000DD24C801B7010E94B7F54C2D2D2D01E025
:105800000E943E580E9473F160932605709327050D
:1058100080932805909329059FCD8BE892E00E9404
:10582000FE249ACD0E94E63697CD0E94E6260E947D
:10583000AE8D0E94AE8D0E94918F8ECD10928F0CF6
:105840008BCD0881198112FD5CC40F2EF0E0AF2EC4
:10585000F0E0BF2EF6E1CF2EF3E4DF2EF02D13FDA6
:105860004DC4EE24FF248A8182FD40C4E5E0F0E0CF
:1058700052E0E516F1040CF49EC442E0E42EF12C53
:1058800022E0EE0CFF1C87EE92E0E80EF91E169562
:1058900007951695079516950795302F3170D70106
:1058A0008D919C91B601A5018F01E32E0E94275492
:1058B00053CD0E94C29E50CD8881998192FF53C4DE
:1058C00020E08E8D9F8DA8A1B9A10097A105B105FB
:1058D00009F021E0822F0E947F8F3ECD0E94E626B4
:1058E0003BCD8FEC9DE00E94BBA136CD8FEC9DE0BF
:1058F0000E9499A731CD8881998197FF2DCD8FEC9A
:105900009DE060E00E9413B4CE5ADF4F6881798138
:105910008FEC9DE040E00E9405A31ECD8FEC9DE042
:105920000E94DEA219CD8881998197FF15CDCE5AAC
:10593000DF4F688179818FEC9DE00E948FA20CCDB2
:105940008881998197FF08CD8FEC9DE060E00E94EF
:1059500013B4CE5ADF4F688179818FEC9DE00E94AD
:1059600000A2FACC81E080938F0CF6CC88819981DB
:1059700092FF02C46E8D7F8D88A199A128EE33E03D
:1059800040E050E00E949BF86093EC027093ED02BF
:105990008093EE029093EF02DFCC81E00E945745A6
:1059A000E0916703F091680380810E94435A83E38A
:1059B00099E00E942035D0CCA0916703B091680394
:1059C0002C918881998191FF4DC3CC5ADF4F8881FA
:1059D000C455D040882309F045C320E0CC24DD2401
:1059E0008A8182FD45C30F2EF0E0EF2EF0E0FF2EFE
:1059F000F0E00F2FF0E01F2FF02D83FF04C0EAA886
:105A0000FBA80CA91DA9F601F695FE2FEE27F79528
:105A1000E795EC0DFD1DEB56FD4FE082F182028310
:105A200013838C91821709F4F6C3C801B70120E0F3
:105A300030E040E050E00E9415F5882309F07AC379
:105A40008FE592E0B6010E94BC3486CC809142037F
:105A500083FD82CC87E890E161E972E040E00E943A
:105A6000CBC487E890E10E9463DC0E94E62688812F
:105A7000998192FF0EC0EE8CFF8C08A119A190FDB8
:105A800019C4DD24C801B7010E94B7F54D2D0E944D
:105A9000A1536091A1027091A2028091A302909102
:105AA000A4022091A5023091A6024091A702509134
:105AB000A8020E944EF47B018C0120E030E040E01F
:105AC00050E00E9423F718160CF0DBC3C801B701A1
:105AD00020E030E040E450E40E9415F588230CF407
